:100000000C9434000C9451000C9451000C94510049
:100010000C9451000C9451000C9451000C9451001C
:100020000C9451000C9451000C9451000C9451000C
:100030000C9451000C9451000C9471000C945100DC
:100040000C9451000C9451000C9451000C945100EC
:100050000C9451000C9451000C9451000C945100DC
:100060000C9451000C94510011241FBECFEFD8E026
:10007000DEBFCDBF11E0A0E0B1E0E2EFF1E002C0F1
:1000800005900D92AA30B107D9F721E0AAE0B1E0BE
:1000900001C01D92AC30B207E1F70E94C4000C947D
:1000A000F7000C940000E82FF0E0E050FF4F808153
:1000B000982F9F7398B986FF04C085B1806185B978
:1000C000089585B18F7E85B9089582E084BD85E06D
:1000D00085BD81E687BDEEE6F0E0808182608083A9
:1000E00008951F920F920FB60F9211242F933F93F2
:1000F0004F935F936F937F938F939F93AF93BF9330
:10010000EF93FF9380910B019DEC899F812D11242A
:10011000282F26952695269530910B01399F812D04
:100120001124869586958695880F982F990F990F9B
:10013000890F381B832F95B1936095B990910A016F
:1001400091110AC0822F0E94530085B18E7F85B91C
:1001500081E080930A0107C00E94530085B18D7F22
:1001600085B910920A01FF91EF91BF91AF919F91D4
:100170008F917F916F915F914F913F912F910F9050
:100180000FBE0F901F90189584B18F7784B985B1F9
:10019000806885B984B1836084B984B1806184B991
:1001A0008FEF87B985B1816085B985B18D7F85B9BC
:1001B0000E946500789480E00CC0EFE4F3EC319786
:1001C000F1F700C000001F9903C010920B0103C09B
:1001D0008F5F8A3090F380910B018F5F80930B01CA
:1001E00080910B01843638F310920B01E4CFF89420
:0201F000FFCF3F
:0A01F2003F065B4F666D7D077F6FCF
:00000001FF
