:100000000C9434000C9451000C9451000C94510049
:100010000C9451000C9451000C9451000C9451001C
:100020000C9451000C9451000C9451000C9451000C
:100030000C9451000C9451000C9451000C945100FC
:100040000C9451000C9451000C9451000C945100EC
:100050000C9451000C9451000C9451000C945100DC
:100060000C9451000C94510011241FBECFEFD8E026
:10007000DEBFCDBF11E0A0E0B1E0E6E3F1E002C0F9
:1000800005900D92AA30B107D9F721E0AAE0B1E0BE
:1000900001C01D92AB30B207E1F70E9465000C94DD
:1000A00099000C940000E82FF0E0E050FF4F8081B1
:1000B000982F9F7398B986FF04C085B1806185B978
:1000C000089585B18F7E85B9089584B18F7784B9FD
:1000D00085B1806885B984B1836084B984B1806159
:1000E00084B98FEF87B985B1816085B985B18D7F7E
:1000F00085B980910A018A3010F010920A0180912E
:100100000A010E94530080E00CC0EFE4F3EC319749
:10011000F1F700C000001F9903C010920A0103C04C
:100120008F5F8A3090F380910A018F5F80930A017C
:06013000E0CFF894FFCFC0
:0A0136003F065B4F666D7D077F6F8B
:00000001FF
