S01700004763634170706C69636174696F6E312E737265635B
S11300000C9434000C943E000C943E000C943E007E
S11300100C943E000C943E000C943E000C943E0064
S11300200C943E000C943E000C943E000C943E0054
S11300300C943E000C943E000C943E000C943E0044
S11300400C943E000C943E000C943E000C943E0034
S11300500C943E000C943E000C943E000C943E0024
S11300600C943E000C943E0011241FBECFEFD8E048
S1130070DEBFCDBF0E9450000C941F010C94000001
S11300808093C4009093C50088E08093C1000895D4
S1130090E0ECF0E0908195FFFDCF8093C6000895D9
S11300A0CF93DF93CDB7DEB7CC57D1090FB6F89411
S11300B0DEBF0FBECDBF8CE090E00E944000E2E0C6
S11300C0F0E0812C912C17C0CF01B9010E94FC00F3
S11300D0892B61F02F5F3F4F229FC001239F900D1A
S11300E0900D1124E817F90778F777C03196ED32AF
S11300F021E0F20749F0E430F10508F46EC0E0FFB6
S1130100F5CF22E030E0E6CF81149104E9F3CE018B
S113011001965C01C12CD12CF501E190F1905F01B5
S113012097013695279536952795ABE7B4E10E945C
S1130130100196958795805D0E9448009701ADEC6B
S1130140BCEC0E9410018C01169507951695079535
S11301501695079598010E94100196958795969596
S11301608795969587959C01220F331F880F991FB9
S1130170880F991F880F991F820F931F9801281BBE
S1130180390BC901805D0E944800C801880F991F7E
S1130190000F111F000F111F000F111F080F191F4F
S11301A0C701801B910B805D0E9448008CE20E9475
S11301B0480080E20E9448003FE38DE093E0315024
S11301C080409040E1F700C00000EFEFCE1ADE0A55
S11301D08C149D0409F0A0CF97CFD401AA0FBB1FA4
S11301E021E030E02C0F3D1FA20FB31FED93FC93D1
S11301F03FEF831A930A7ACFAA1BBB1B51E107C0B6
S1130200AA1FBB1FA617B70710F0A61BB70B881FA2
S1130210991F5A95A9F780959095BC01CD01089531
S1130220A29FB001B39FC001A39F700D811D112433
S1130230911DB29F700D811D1124911D0895F89494
S1050240FFCFEA
S9030000FC
