:100000000C9434000C943E000C943E000C943E0082
:100010000C943E000C943E000C943E000C943E0068
:100020000C943E000C943E000C943E000C943E0058
:100030000C943E000C943E000C943E000C943E0048
:100040000C943E000C943E000C943E000C943E0038
:100050000C943E000C943E000C943E000C943E0028
:100060000C943E000C943E0011241FBECFEFD8E04C
:10007000DEBFCDBF0E9450000C9418010C9400000C
:100080008093C4009093C50088E08093C1000895D8
:10009000E0ECF0E0908195FFFDCF8093C6000895DD
:1000A000CF93DF93CDB7DEB7CC57D1090FB6F89415
:1000B000DEBF0FBECDBF8CE090E00E944000E2E0CA
:1000C000F0E0812C912C17C0CF01B9010E94F500FE
:1000D000892B61F02F5F3F4F229FC001239F900D1E
:1000E000900D1124E817F90778F770C03196ED32BA
:1000F00021E0F20749F0E430F10508F467C0E0FFC1
:10010000F5CF22E030E0E6CF8114910409F44EC02F
:10011000CE0101965C01C12CD12CF501E190F1904A
:100120005F0197013695279536952795ABE7B4E1A2
:100130000E94090196958795805D0E94480097016D
:10014000ADECBCEC0E9409018C0116950795169543
:1001500007951695079580E3800F0E944800C80117
:10016000880F991F000F111F000F111F000F111F83
:10017000080F191FC701801B910B805D0E9448006A
:100180008CE20E94480080E20E944800FFE32DE0DC
:1001900083E0F15020408040E1F700C000009FEF75
:1001A000C91AD90A8C149D0409F0B7CF8DE00E94BA
:1001B00048008AE00E944800EFEFF4E32CE0E150B1
:1001C000F0402040E1F700C000009ECFD401AA0F0C
:1001D000BB1F81E090E08C0F9D1FA80FB91FED930E
:1001E000FC939FEF891A990A81CFAA1BBB1B51E18F
:1001F00007C0AA1FBB1FA617B70710F0A61BB70B97
:10020000881F991F5A95A9F780959095BC01CD013B
:100210000895A29FB001B39FC001A39F700D811DDF
:100220001124911DB29F700D811D1124911D0895FF
:04023000F894FFCF70
:00000001FF
