S01700004763634170706C69636174696F6E312E737265635B
S11300000C9434000C943E000C943E000C943E007E
S11300100C943E000C943E000C943E000C943E0064
S11300200C943E000C943E000C943E000C943E0054
S11300300C943E000C943E000C943E000C943E0044
S11300400C943E000C943E000C943E000C943E0034
S11300500C943E000C943E000C943E000C943E0024
S11300600C943E000C943E0011241FBECFEFD8E048
S1130070DEBFCDBF0E9450000C9461000C940000C0
S11300808093C4009093C50088E08093C1000895D4
S1130090E0ECF0E0908195FFFDCF8093C6000895D9
S11300A08CE090E00E94400083E30E9448002FE32C
S11300B08DE093E0215080409040E1F700C00000C3
S10900C0F3CFF894FFCF1A
S9030000FC
