:100000000C9434000C943E000C943E000C943E0082
:100010000C943E000C943E000C943E000C943E0068
:100020000C943E000C943E000C943E000C943E0058
:100030000C943E000C943E000C943E000C943E0048
:100040000C943E000C943E000C943E000C943E0038
:100050000C943E000C943E000C943E000C943E0028
:100060000C943E000C943E0011241FBECFEFD8E04C
:10007000DEBFCDBF0E947A000C940B030C940000ED
:10008000CF93DF9300D0CDB7DEB79A83898384EC1A
:1000900090E02981FC01208385EC90E029813A8160
:1000A000232F3327FC01208381EC90E028E0FC0122
:1000B000208300000F900F90DF91CF910895CF9390
:1000C000DF931F92CDB7DEB78983000080EC90E00C
:1000D000FC018081882F90E080729927892BB1F3F1
:1000E00086EC90E02981FC01208300000F90DF91D5
:1000F000CF910895CF93DF93CDB7DEB7C759D1091C
:100100000FB6F894DEBF0FBECDBF8CE090E00E942A
:1001100040001A8219828CE291E09B878A8782E0F4
:1001200090E09C838B8343C081E08D8382E090E0EC
:100130009F838E8310C08B819C812E813F81B9016A
:100140000E94E802892B11F41D8215C08E819F81C7
:1001500001969F838E834E815F818E819F81489F10
:100160009001499F300D589F300D11248B819C8147
:100170008217930700F78D818823A1F089819A81E6
:10018000880F991F9E012F5F3F4F820F931F4B9641
:100190002B813C81FC013183208389819A810196E6
:1001A0009A8389838B819C8101969C838B832B818D
:1001B0003C818A859B858217930708F0B5CF198605
:1001C0001886E2C088859985880F991F9E012F5F48
:1001D0003F4F820F931F4B96FC01808191819D8739
:1001E0008C878C859D8596958795969587959C019E
:1001F000ABE7B4E10E94FC0296958795805D0E9472
:100200005F008C859D859C01ADECBCEC0E94FC02DE
:10021000AC015695479556954795569547959A0141
:10022000ADECBCEC0E94FC0296958795969587955F
:1002300096958795880F991F9C01220F331F220FD7
:10024000331F820F931F9A01281B390BC901805D50
:100250000E945F004C855D859A01ADECBCEC0E946C
:10026000FC02969587959695879596958795880F24
:10027000991F9C01220F331F220F331F820F931FE0
:10028000FA01E81BF90BCF01805D0E945F008CE250
:100290000E945F0080E20E945F0080E090E0AAEF91
:1002A000B3E48E879F87A88BB98B20E030E04AEFBC
:1002B00053E46E857F85888999890E945302DC0109
:1002C000CB018A8B9B8BAC8BBD8B20E030E040E870
:1002D0005FE36A897B898C899D890E94CD0188238F
:1002E0002CF481E090E09F8B8E8B3FC020E03FEFAD
:1002F0004FE757E46A897B898C899D890E944E0269
:1003000018164CF520E030E040E251E46E857F8520
:10031000888999890E945302DC01CB01BC01CD017F
:100320000E94D201DC01CB019F8B8E8B0FC082E338
:1003300090E0998F888F888D998D0197F1F7998F2B
:10034000888F8E899F8901979F8B8E8B8E899F893D
:10035000892B69F714C06A897B898C899D890E94E1
:10036000D201DC01CB019F8B8E8B8E899F899B8F65
:100370008A8F8A8D9B8D0197F1F79B8F8A8F888555
:1003800099850196998788872885398589819A81F9
:100390002817390708F416CF12CF0E94010208F47B
:1003A00081E008950E942D0288F09F5798F0B92FA0
:1003B0009927B751B0F0E1F0660F771F881F991F9A
:1003C0001AF0BA95C9F714C0B13091F00E944702F3
:1003D000B1E008950C944702672F782F8827B85F03
:1003E00039F0B93FCCF3869577956795B395D9F7F2
:1003F0003EF490958095709561957F4F8F4F9F4FFC
:100400000895990F0008550FAA0BE0E8FEEF1616A5
:100410001706E807F907C0F012161306E407F507F8
:1004200098F0621B730B840B950B39F40A2661F06C
:10043000232B242B252B21F408950A2609F4A1400F
:10044000A6958FEF811D811D089557FD9058440F8B
:10045000551F59F05F3F71F04795880F97FB991F23
:1004600061F09F3F79F087950895121613061406E0
:10047000551FF2CF4695F1DF08C01616170618066D
:10048000991FF1CF86957105610508940895E89448
:10049000BB2766277727CB0197F908950E940102B1
:1004A00008F48FEF08950E9466020C94D7020E9410
:1004B000C90238F00E94D00220F0952311F00C946C
:1004C000C0020C94C60211240C9448020E9425021A
:1004D00070F3959FC1F3950F50E0551F629FF00197
:1004E000729FBB27F00DB11D639FAA27F00DB11DB0
:1004F000AA1F649F6627B00DA11D661F829F222739
:10050000B00DA11D621F739FB00DA11D621F839FBF
:10051000A00D611D221F749F3327A00D611D231F95
:10052000849F600D211D822F762F6A2F11249F57E3
:1005300050409AF0F1F088234AF0EE0FFF1FBB1FE6
:10054000661F771F881F91505040A9F79E3F5105A5
:1005500080F00C94C0020C9448025F3FE4F3983E94
:10056000D4F3869577956795B795F795E7959F5F4F
:10057000C1F7FE2B880F911D9695879597F90895E1
:1005800097F99F6780E870E060E008959FEF80EC46
:10059000089500240A9416161706180609060895E9
:1005A00000240A9412161306140605060895092E4F
:1005B0000394000C11F4882352F0BB0F40F4BF2BBE
:1005C00011F460FF04C06F5F7F4F8F4F9F4F0895FE
:1005D000AA1BBB1B51E107C0AA1FBB1FA617B70769
:1005E00010F0A61BB70B881F991F5A95A9F7809585
:1005F0009095BC01CD010895A29FB001B39FC001A9
:10060000A39F700D811D1124911DB29F700D811D3E
:0A0610001124911D0895F894FFCF06
:00000001FF
