:100000000C9434000C9449000C9449000C94490061
:100010000C9449000C9449000C9449000C9449003C
:100020000C9449000C9449000C9449000C9449002C
:100030000C9449000C9449000C9449000C9449001C
:100040000C9449000C9449000C9449000C9449000C
:100050000C9449000C9449000C9449000C944900FC
:100060000C9449000C94490011241FBECFEFD8E036
:10007000DEBFCDBF11E0A0E0B1E0E8EBF2E002C0EE
:1000800005900D92AA30B107D9F70E94F6000C94A2
:100090005A010C94000080E480937C0084E88093F3
:1000A0007A0010927B000895ECE7F0E09081907F59
:1000B0008770892B8083EAE7F0E080818064808309
:1000C00080917A0086FDFCCF809178009091790034
:1000D00008959C01A8E8B3E10E944B01DC01CB012B
:1000E000072E7AE0B695A795979587957A95D1F7DB
:1000F000702D08958CE08093C40088E08093C10047
:1001000086E08093C20008959091C00095FFFCCFD7
:100110008093C6000895CF93DF93EC0103C021962E
:100120000E94840088818111FACFDF91CF910895D8
:100130000F931F93CF93DF9300D000D000D0CDB7A3
:10014000DEB7AC01892B99F580E30E94840043C09F
:100150009A01ADECBCEC0E944B0196958795969563
:100160008795969587959C01220F331F880F991FBD
:10017000880F991F880F991F820F931F9A01281BC0
:10018000390BC901E1E0F0E0EC0FFD1FE00FF11FBA
:10019000805D80839A010E944B01AC015695479582
:1001A00056954795569547950F5F1F4F02C000E043
:1001B00010E04115510561F60BC001501109E1E055
:1001C000F0E0EC0FFD1FE00FF11F80810E94840022
:1001D0001016110694F326960FB6F894DEBF0FBEE4
:1001E000CDBFDF91CF911F910F910895CF93DF93F2
:1001F000CDB7DEB7C055D1090FB6F894DEBF0FBE3C
:10020000CDBF0E944B000E947A00F12C18C00F2D28
:1002100010E082E00E9454000E946900000F111F4C
:10022000E1E0F0E0EC0FFD1FE00FF11F9183808310
:1002300083EF91E00197F1F700C00000F39497E29B
:100240009F1528F780E091E00E948B0010E013C01A
:10025000E12FF0E0EE0FFF1F81E090E08C0F9D1F7B
:10026000E80FF91F808191810E94980086E091E05B
:100270000E948B001F5F183258F386E091E00E94C5
:100280008B009FEF24E38CE0915020408040E1F709
:1002900000C00000BACFA29FB001B39FC001A39FCE
:1002A000700D811D1124911DB29F700D811D1124AF
:0802B000911D0895F894FFCFA1
:0A02B8005256315F6D560D0A00002A
:00000001FF
