S01000006C61623620322E322E73726563FD
S11300000C9434000C9451000C9451000C94510045
S11300100C9451000C9451000C9451000C94510018
S11300200C9451000C9451000C9451000C94510008
S11300300C9451000C9451000C9468010C945100E0
S11300400C9451000C9451000C9451000C945100E8
S11300500C9451000C9451000C9451000C945100D8
S11300600C9451000C94510011241FBECFEFD8E022
S1130070DEBFCDBF11E0A0E0B1E0E2EAF3E002C0F0
S113008005900D92AA30B107D9F721E0AAE0B1E0BA
S113009001C01D92AF30B207E1F70E948C010C94AD
S11300A0CF010C94000087B1886387B98AB1806F4F
S11300B08AB98BB18F778BB98BB180678BB908956F
S11300C00F931F93CF93DF93AC01C62F9C013695FA
S11300D027953695279536952795A5ECB0E20E948D
S11300E0C001FC01F295E295EF70EF27FF70EF2756
S11300F09F01ADECBCEC0E94C00196958795969546
S11301008795969587959C01220F331F880F991F19
S1130110880F991F880F991F820F931F9F01281B17
S1130120390BF901E050FF4F8081EBE0F1E080836F
S11301309A013695279536952795ABE7B4E10E9449
S1130140C0018C01169507959801ADECBCEC0E949A
S1130150C0019695879596958795969587959C0168
S1130160220F331F880F991F880F991F880F991F1B
S1130170820F931F9801281B390BD901A050BF4F40
S11301808C9181839A01ADECBCEC0E94C0018C017E
S113019016950795169507951695079598010E944B
S11301A0C0019695879596958795969587959C0118
S11301B0220F331F880F991F880F991F880F991FCB
S11301C0820F931F9801281B390BD901A050BF4FF0
S11301D08C918283C801880F991F000F111F000F93
S11301E0111F000F111F080F191F401B510BDA01BB
S11301F0A050BF4F8C918383C43030F4D0E0C55FEE
S1130200DE4F888180688883DF91CF911F910F91A1
S11302100895E0910A01F0E0E55FFE4F408187E038
S113022018C0242F30E0082E02C0359527950A9473
S1130230E2F720FF04C098B1906198B903C098B167
S11302409F7E98B998B1986098B998B1977F98B9FA
S11302508150882334F78BB1806F8BB988B1806269
S113026088B988B18F7D88B980910A01813051F0B5
S113027028F0823059F0833069F00FC08BB18F7E43
S11302808BB90BC08BB18F7D8BB907C08BB18F7BC2
S11302908BB903C08BB18F778BB980910A0190E041
S11302A0019683709078992324F401978C6F9F6F43
S11302B0019680930A01089582E084BD85E085BD9E
S11302C080E387BDEEE6F0E080818260808308955C
S11302D01F920F920FB60F9211242F933F934F93B7
S11302E05F936F937F938F939F93AF93BF93EF939A
S11302F0FF930E940901FF91EF91BF91AF919F91EC
S11303008F917F916F915F914F913F912F910F90BA
S11303100FBE0F901F901895CF93DF9300D000D09D
S1130320CDB7DEB70E9453000E945C01789400E0D0
S113033010E002C000E010E06FEFC8010E9460000E
S113034019821A821B821C820BC089819A81AB811B
S1130350BC810196A11DB11D89839A83AB83BC83A3
S113036089819A81AB81BC8180329E44A105B1050B
S113037060F30F5F1F4F003187E21807D8F6DCCF18
S1130380A29FB001B39FC001A39F700D811D1124D2
S1130390911DB29F700D811D1124911D0895F89433
S10503A0FFCF89
S10D03A23F065B4F666D7D077F6F19
S9030000FC
