S01000006C61623620322E322E73726563FD
S11300000C9434000C9451000C9451000C94510045
S11300100C9451000C9451000C9451000C94510018
S11300200C9451000C9451000C9451000C94510008
S11300300C9451000C9451000C9459010C945100EF
S11300400C9451000C9451000C9451000C945100E8
S11300500C9451000C9451000C9451000C945100D8
S11300600C9451000C94510011241FBECFEFD8E022
S1130070DEBFCDBF11E0A0E0B1E0E6E5F3E002C0F1
S113008005900D92AE30B107D9F721E0AEE0B1E0B2
S113009001C01D92A331B207E1F70E947D010C94C7
S11300A0A9010C94000087B1886387B98AB1806F75
S11300B08AB98BB1806F8BB908950F931F93CF9337
S11300C0DF93AC01C62F9C0136952795369527956D
S11300D036952795A5ECB0E20E949A01FC01F295B1
S11300E0E295EF70EF27FF70EF279F01ADECBCECBA
S11300F00E949A01969587959695879596958795EA
S11301009C01220F331F880F991F880F991F880F96
S1130110991F820F931F9F01281B390BF901EC5F74
S1130120FE4F8081EFE0F1E080839A0136952795B8
S113013036952795ABE7B4E10E949A018C01169598
S113014007959801ADECBCEC0E949A0196958795B1
S113015096958795969587959C01220F331F880F56
S1130160991F880F991F880F991F820F931F980159
S1130170281B390BD901AC5FBE4F8C9181839A0146
S1130180ADECBCEC0E949A018C011695079516956E
S113019007951695079598010E949A01969587955B
S11301A096958795969587959C01220F331F880F06
S11301B0991F880F991F880F991F820F931F980109
S11301C0281B390BD901AC5FBE4F8C918283C801C7
S11301D0880F991F000F111F000F111F000F111F0F
S11301E0080F191F401B510BDA01AC5FBE4F8C91F5
S11301F08383C43030F4D0E0C15FDE4F88818068EF
S11302008883DF91CF911F910F91089588B1877DE5
S113021088B9E0910E01F0E0E15FFE4F408187E094
S113022018C0242F30E0082E02C0359527950A9473
S1130230E2F720FF04C098B1906198B903C098B167
S11302409F7E98B998B1986098B998B1977F98B9FA
S11302508150882334F78BB1806F8BB988B1806269
S113026088B988B18F7D88B98BB1E0910E01F0E037
S1130270E050FF4F90818F70892B8BB980910E01D4
S113028090E0019683709078992324F401978C6F01
S11302909F6F019680930E01089582E084BD84E0EF
S11302A085BD8DE487BDEEE6F0E0808182608083C9
S11302B008951F920F920FB60F9211242F933F931C
S11302C04F935F936F937F938F939F93AF93BF935A
S11302D0EF93FF930E940601FF91EF91BF91AF91BD
S11302E09F918F917F916F915F914F913F912F914A
S11302F00F900FBE0F901F9018950E9453000E94FC
S11303004D017894C0E0D0E002C0C0E0D0E06FEFCF
S1130310CE010E945D002FEF80E792E021508040E3
S11303209040E1F700C000002196C03127E2D207D7
S113033060F7EDCFA29FB001B39FC001A39F700DE2
S1130340811D1124911DB29F700D811D1124911DD9
S10903500895F894FFCFAC
S1110356E0D0B0703F065B4F666D7D077F6F91
S9030000FC
