:100000000C9434000C943E000C943E000C943E0082
:100010000C943E000C943E000C943E000C943E0068
:100020000C943E000C943E000C943E000C943E0058
:100030000C943E000C943E000C9451000C943E0035
:100040000C943E000C943E000C943E000C943E0038
:100050000C943E000C943E000C943E000C943E0028
:100060000C943E000C943E0011241FBECFEFD8E04C
:10007000DEBFCDBF0E9443000C9486000C940000AC
:1000800080E283B908958FEF84B917B81AB80E9437
:10009000750078940E947C008823E1F30E94400060
:1000A000F9CF1F920F920FB60F9211242F933F9307
:1000B0004F935F936F937F938F939F93AF93BF9370
:1000C000EF93FF930E944000FF91EF91BF91AF919A
:1000D0009F918F917F916F915F914F913F912F9160
:1000E0000F900FBE0F901F90189582E084BD84E0A2
:1000F00085BD8EE487BD089595B3892F827091FFE9
:1001000004C085B3826085BB81E00895F894FFCF79
:00000001FF
