S00D00004C616220352E73726563B3
S11300000C9434000C943E000C943E000C943E007E
S11300100C943E000C943E000C943E000C943E0064
S11300200C943E000C943E000C943E000C943E0054
S11300300C943E000C943E000C943E000C943E0044
S11300400C943E000C943E000C943E000C943E0034
S11300500C943E000C943E000C943E000C943E0024
S11300600C943E000C943E0011241FBECFEFD8E048
S1130070DEBFCDBF0E9440000C9457000C940000DA
S11300808FEF84B917B81AB880E285B92FEE89E4E6
S113009092E0215080409040E1F700C0000015B884
S11300A083E294EF0197F1F700C00000EDCFF894DC
S10500B0FFCF7C
S9030000FC
